:020000040800F2
:1000000000000220991D00082108000823080008AC
:10001000250800082708000829080008000000003B
:100020000000000000000000000000002B08000895
:100030002D080008000000002F080008491D0008D6
:10004000E91D0008E91D0008E91D0008E91D000878
:10005000E91D0008E91D0008E91D0008E91D000868
:10006000E91D0008E91D0008E91D0008E91D000858
:10007000E91D0008E91D0008E91D0008E91D000848
:10008000E91D0008E91D0008E91D0008E91D000838
:10009000E91D0008E91D0008E91D0008E91D000828
:1000A000E91D0008E91D0008E91D0008E91D000818
:1000B000E91D0008E91D0008E91D0008E91D000808
:1000C000E91D0008E91D0008E91D0008E91D0008F8
:1000D000E91D0008E91D0008E91D0008E91D0008E8
:1000E000E91D0008E91D0008E91D0008E91D0008D8
:1000F000E91D0008E91D0008E91D0008E91D0008C8
:10010000E91D0008E91D0008E91D0008E91D0008B7
:10011000E91D0008E91D0008E91D0008E91D0008A7
:1001200031080008E91D0008E91D0008E91D000864
:10013000E91D00080000000000000000E91D0008A3
:10014000E91D0008E91D0008E91D0008E91D000877
:10015000E91D0008E91D0008E91D0008E91D000867
:10016000E91D0008E91D0008E91D0008E91D000857
:10017000E91D0008E91D0008000000000000000063
:04018000E91D00086D
:10018400044B05481B1A062B02D9044B03B118472C
:10019400704700BF0700002004000020000000009A
:1001A40005490648091A891001EBD171491002D09A
:1001B400034B03B1184770470400002004000020DB
:1001C4000000000010B5064C237843B9FFF7D8FFB0
:1001D400044B13B10448AFF300800123237010BD16
:1001E4000400002000000000EC1D000808B5084BC6
:1001F4001BB108490848AFF300800848036813B9E5
:10020400BDE80840CCE7064B002BF9D09847F7E748
:100214000000000008000020EC1D0008040000207D
:100224000000000070402DE964609FE564509FE584
:10023400066065E04661B0E10040A0130500000AD5
:10024400014084E2043095E40FE0A0E113FF2FE1C4
:10025400040056E1F9FFFF1A3C609FE53C509FE51E
:10026400066065E0DF0600FA4661B0E10040A013D5
:100274000500000A014084E2043095E40FE0A0E1A7
:1002840013FF2FE1040056E1F9FFFF1A7040BDE8A7
:100294001EFF2FE1701E0008701E0008741E000867
:1002A400701E000853B94AB9002908BF00281CBFB2
:1002B4004FF0FF314FF0FF3000F07AB9ADF1080C88
:1002C4006DE904CE00F006F8DDF804E0DDE9022370
:1002D40004B070472DE9F0478C460E460446089D4D
:1002E400002B50D18A4217466CD9B2FA82FEBEF175
:1002F400000F0BD0CEF1200C01FA0EF620FA0CFC04
:1003040002FA0EF74CEA060C00FA0EF43A0CBCFBA7
:10031400F2F9BBB202FB19CC09FB03FA4FEA144809
:1003240048EA0C46B2450AD9F61909F1FF3180F0C2
:100334002581B24540F22281A9F102093E44A6EB8F
:100344000A06B6FBF2F002FB106600FB03F3A4B24C
:1003540044EA0644A34209D9E41900F1FF3280F0CB
:100364000B81A34240F2088102383C440021E41A84
:1003740040EA0940002D62D0002324FA0EF42C60D8
:100384006B60BDE8F0878B4207D9002D55D0002162
:1003940085E841000846BDE8F087B3FA83F10029F7
:1003A40040F08F80B34202D3824200F2FC80841A70
:1003B40066EB03060120B446002D40D085E81010FA
:1003C400BDE8F08712B90127B7FBF2F7B7FA87FE49
:1003D400BEF1000F35D10121F61B4FEA174C1FFA6D
:1003E40087F8B6FBFCF20CFB126608FB02F0230C48
:1003F40043EA0646B04207D9F61902F1FF3302D2A6
:10040400B04200F2D2801A46361AB6FBFCF00CFB5E
:10041400106608FB00F8A3B243EA0644A04507D9D6
:10042400E41900F1FF3302D2A04500F2B980184666
:10043400A4EB080440EA02409CE729462846BDE8AC
:10044400F08707FA0EF7CEF1200326FA03F24FEAFB
:10045400174CB2FBFCF11FFA87F80CFB112206FAC9
:100464000EF620FA03F301FB08F933431E0C46EAA7
:100474000246B14500FA0EF409D9F61901F1FF322A
:1004840080F08C80B14540F2898002393E44A6EB6D
:100494000906B6FBFCF00CFB106200FB08F99EB2E7
:1004A40046EA0246B14507D9F61900F1FF3371D285
:1004B400B1456FD902383E44A6EB090640EA014132
:1004C4008FE7C1F1200722FA07F88B4048EA0303BB
:1004D40026FA07F44FEA134EB4FBFEF91FFA83FC25
:1004E4000EFB19448E4020FA07F809FB0CFA48EA7F
:1004F40006084FEA184646EA0444A24502FA01F205
:1005040000FA01F608D9E41809F1FF3044D2A245F3
:1005140042D9A9F102091C44A4EB0A04B4FBFEF07D
:100524000EFB104400FB0CFC1FFA88F848EA044454
:10053400A44507D9E41800F1FF3E29D2A44527D9E0
:1005440002381C4440EA0940A0FB0289A4EB0C0CCD
:10055400CC45C246CE4615D312D055B1B6EB0A03EC
:100564006CEB0E0606FA07F7CB401F43CE402F6014
:100574006E600021BDE8F0871046F7E68946DEE6A6
:100584004645EAD2B8EB020A69EB030E0138E4E708
:100594007046D7E718468FE78146BDE7114676E7F0
:1005A40002383C4444E7084606E7023A3E442BE757
:1005B400704700BF82B0002100910B4B1A6B42F0D0
:1005C40080021A631A6B02F080020092009A019171
:1005D4001A6B42F001021A631B6B03F001030193CF
:1005E400019B02B0704700BF0038024000B583B0E1
:1005F40000210191094B1A6B42F480021A631B6BB0
:1006040003F480030193019B0A46382001F07AF831
:10061400382001F0A9F803B05DF804FB003802406B
:10062400FEE7000008B50B480B4B03604FF4E133C1
:10063400436000238360C36003610C2242618361D1
:10064400C36100F0F1FC00B908BD4FF4897103489F
:10065400FFF7E6FF6C00002000100140041E0008B4
:1006640000B585B03748384B03604FF4803343609E
:10067400002282600123036183610262C262334902
:100684008162C2600622C2610363436100F038FAEA
:1006940000283AD1072300930123019300230293F6
:1006A4006946284800F056FA002832D10623009300
:1006B400022301936946234800F04CFA68BB0323E4
:1006C4000093019369461F4800F044FA48BB022393
:1006D40000930423019369461A4800F03BFA20BBB7
:1006E40001230093052301936946164800F032FA6A
:1006F400F8B900230093062301936946114800F0DA
:1007040029FAD0B905B05DF804FBC8211048FFF7F9
:1007140087FFD2210E48FFF783FFDB210C48FFF748
:100724007FFFE4210A48FFF77BFFED210848FFF72C
:1007340077FFF6210648FFF773FFFF210448FFF710
:100744006FFF00BF24000020002001400100000FC3
:10075400041E000800B593B00223069301220992F7
:1007640010220A920C9300220D920D220E92C322A3
:100774000F9210930423119306A800F0BBFC20BB36
:100784000F23019302230293002303934FF4A053F6
:1007940004934FF480530593032101A800F0BCFE99
:1007A400B8B900F06BFF0D4BA3FB0030800900F0DB
:1007B400E7FF042000F0FAFF002211464FF0FF305B
:1007C40000F0A0FF13B05DF804FB95210448FFF787
:1007D40027FFA3210248FFF723FF00BFD34D621078
:1007E400041E000808B500F065FCFFF7B3FFFFF72F
:1007F400E1FEFFF7FBFEFFF715FFFFF731FF0549A9
:10080400054801F08BFA0D2001F092FA0A2001F05C
:100814008FFAFEE7351D0008101E00087047FEE73A
:10082400FEE7FEE7FEE770477047704708B50248E9
:1008340001F086F908BD00BFAC00002010B582B0FD
:1008440000240094214B5A6C42F480425A645A6C3E
:1008540002F480420092009A01941A6C42F0805291
:100864001A641B6C03F080530193019B032000F076
:1008740037FF224621466FF00B0000F043FF22466B
:1008840021466FF00A0000F03DFF224621466FF03A
:10089400090000F037FF224621466FF0040000F003
:1008A40031FF224621466FF0030000F02BFF224661
:1008B40021466FF0010000F025FF224621464FF04B
:1008C400FF3000F01FFF02B010BD00BF003802402F
:1008D4000268214B9A4200D0704770B586B0044636
:1008E4000025009503F58C335A6C42F480725A64E7
:1008F4005B6C03F480730093009BCF230193032666
:100904000296039501A9154800F060FF1448154BA1
:10091400036045608560C5604FF4806303614FF4F4
:10092400006343614FF4005383614FF48073C361E8
:100934000562042343628662C562056301F098F888
:1009440020B9074BA3639C6306B070BD7E210648A3
:10095400FFF766FEF5E700BF0020014000000240FB
:10096400AC00002010640240301E00080268124BE4
:100974009A4200D0704700B587B0002300930F4B14
:100984005A6C42F010025A645B6C03F0100300933B
:10099400009B4FF4C063019302230293012303934A
:1009A400032304930723059301A9054800F00EFFD0
:1009B40007B05DF804FB00BF00100140003802409E
:1009C400000002404C4B5A6822F440325A605A6884
:1009D40041680A435A600268536823F48073536081
:1009E40002685368016943EA01235360026853684B
:1009F40023F0407353600268536881680B4353606B
:100A04000268936823F40063936002689368C16882
:100A14000B439360826A394B9A4249D002689368C7
:100A240023F07063936002689368816A0B43936058
:100A34000268936823F04053936002689368C16A24
:100A44000B4393600268936823F002039360026887
:100A54009368816943EA41039360036A002B32D1AE
:100A64000268536823F4006353600268D36A23F472
:100A74007003D3620168CB6AC269013A43EA025344
:100A8400CB620268936823F40073936002689368EE
:100A9400016B43EA412393600268936823F4806303
:100AA400936002689368416943EA812393607047C5
:100AB4000268936823F0706393600268936823F07C
:100AC40040539360BEE70268536843F40063536085
:100AD4000268536823F460435360436A013B4FF454
:100AE400604292FAA2F2B2FA82F29340026851682A
:100AF4000B435360B9E700BF002301400100000F1E
:100B040030B310B50446036C43B1236C13F0100FDB
:100B14000AD00120002384F83C3010BD436480F8DF
:100B24003C30FFF7D5FEF0E7236C23F4885323F021
:100B3400020343F0020323642046FFF743FF00202F
:100B44006064236C23F0030343F001032364E1E7AF
:100B54000120704730B482B00023019390F83C30F8
:100B6400012B00F0B780012380F83C300B68092B7F
:100B74003ED90568EA689BB203EB43031E3B072496
:100B840004FA03F322EA0303EB600568EA688C685D
:100B94000B8803EB43031E3B04FA03F31343EB609C
:100BA4004B68062B3AD805686A6B03EB8303053B55
:100BB4001F2404FA03F322EA03036B6305686A6BD8
:100BC4004B6803EB8303053B0C8804FA03F31343DC
:100BD4006B630268404B9A4250D002683E4B9A4283
:100BE40055D0002380F83C30184602B030BC704722
:100BF40005682A699BB203EB4303072404FA03F351
:100C040022EA03032B6105682A698C680B8803EBCD
:100C1400430304FA03F313432B61C1E70C2B16D8E7
:100C240005682A6B03EB8303233B1F2404FA03F3B5
:100C340022EA03032B6305682A6B4B6803EB8303E7
:100C4400233B0C8804FA03F313432B63C1E70568C1
:100C5400EA6A03EB8303413B1F2404FA03F322EA09
:100C64000303EB620568EA6A4B6803EB8303413BC9
:100C74000C8804FA03F31343EB62AAE70B68122B04
:100C8400ABD1164A536843F480035360A5E70B685D
:100C9400103B012BA5D8114A536843F40003536059
:100CA4000B68102B9DD10E4B1B6802F1467202F5A6
:100CB4002E3202F28332A2FB03239B0C03EB830349
:100CC4005A00019202E0019B013B0193019B002B1E
:100CD400F9D186E7022088E7002001400023014083
:100CE400000000202DE9F04704460268136923F44C
:100CF4004053C1680B4313610168CB6823F4164366
:100D040023F00C0382680069024360690243E069CE
:100D140002431343CB602268536923F44073A169EF
:100D24000B435361E369B3F5004F62D0D4F80080FC
:100D3400BB4B984500F01B8103F58063984500F098
:100D4400168100F0A1FC00EB800000EB80006568D8
:100D5400AD00B0FBF5F5B34FA7FB05356D092E01CA
:100D640000F092FC00EB800000EB80006568AD00B1
:100D7400B0FBF5FA00F088FC00EB800000EB80008B
:100D84006568AD00B0FBF5F5A7FB05356D094FF0BF
:100D9400640909FB15A52D013235A7FB05356D093D
:100DA40005F0F005354400F06FFC00EB800000EB2B
:100DB40080006668B600B0FBF6F600F065FC00EB58
:100DC400800000EB800063689B00B0FBF3F0A7FB9E
:100DD4000030400909FB10694FEA091909F1320989
:100DE400A7FB0937C7F343172F44C8F80870BDE8B9
:100DF400F087D4F8008003F1804303F5104398454D
:100E04005CD003F58063984558D000F03DFC00EBBE
:100E1400800000EB800065686D00B0FBF5F5814F44
:100E2400A7FB05356D092E0100F02EFC00EB8000B8
:100E340000EB800065686D00B0FBF5FA00F024FC5F
:100E440000EB800000EB800065686D00B0FBF5F5F9
:100E5400A7FB05356D094FF0640909FB15A5ED00E5
:100E64003235A7FB05356D096D0005F4F875354479
:100E740000F00AFC00EB800000EB8000666876005E
:100E8400B0FBF6F600F000FC00EB800000EB800005
:100E940063685B00B0FBF3F3A7FB03235B0909FB67
:100EA40013694FEAC90909F13209A7FB0937C7F3E6
:100EB40042172F44C8F80870BDE8F08700F0FAFB29
:100EC40000EB800000EB800065686D00B0FBF5F579
:100ED400544FA7FB05356D092E0100F0EBFB00EB29
:100EE400800000EB800065686D00B0FBF5FA00F04F
:100EF400E1FB00EB800000EB800065686D00B0FB57
:100F0400F5F5A7FB05356D094FF0640909FB15A537
:100F1400ED003235A7FB05356D096D0005F4F87554
:100F2400354400F0C7FB00EB800000EB80006668EE
:100F34007600B0FBF6F600F0BDFB00EB800000EBA2
:100F4400800063685B00B0FBF3F3A7FB03235B093A
:100F540009FB13694FEAC90909F13209A7FB0937EB
:100F6400C7F342172F44C8F80870BDE8F08700F0B3
:100F7400A1FB00EB800000EB80006568AD00B0FBD6
:100F8400F5F5284FA7FB05356D092E0100F092FBFE
:100F940000EB800000EB80006568AD00B0FBF5FA63
:100FA40000F088FB00EB800000EB80006568AD007A
:100FB400B0FBF5F5A7FB05356D094FF0640909FB96
:100FC40015A52D013235A7FB05356D0905F0F00592
:100FD400354400F06FFB00EB800000EB8000666896
:100FE400B600B0FBF6F600F065FB00EB800000EB0A
:100FF400800063689B00B0FBF3F3A7FB03235B094A
:1010040009FB13694FEA091909F13209A7FB0937EA
:10101400C7F343172F44C8F80870BDE8F08700BF32
:10102400001001401F85EB5158B310B5044690F8E9
:1010340039300BB3242384F839302268D36823F47D
:101044000053D3602046FFF74DFE2268136923F452
:10105400904313612268536923F02A035361226881
:10106400D36843F40053D3600020E063202384F862
:10107400393084F83A3010BD80F83830FFF776FC08
:10108400D8E701207047000010B50446074B1868E4
:10109400074BA3FB0030800900F072FB00222146BD
:1010A4004FF0FF3000F02EFB002010BD00000020A8
:1010B400D34D621008B50B4B1A6842F400721A60E3
:1010C4001A6842F480621A601A6842F480721A60E4
:1010D400032000F005FB0020FFF7D6FFFFF7AEFB6F
:1010E400002008BD003C0240014B1868704700BF57
:1010F4000C010020002800F0978130B583B004462D
:10110400036813F0010F2ED0A34B9B6803F00C036C
:10111400042B1FD0A04B9B6803F00C03082B14D0A6
:1011240022799E4B1A706368002B40D0FFF7DCFFD6
:101134000546994B1B6813F4003F14D1FFF7D4FF05
:10114400401B6428F5D9032073E1934B5B6813F4C7
:10115400800FE5D0904B1B6813F4003F03D0636805
:10116400002B00F06381236813F0020F4BD08A4BED
:101174009B6813F00C0F2ED0874B9B6803F00C0375
:10118400082B23D0E368002B64D00122844B1A601F
:10119400FFF7AAFF0546804B1B6813F0020F4AD1E4
:1011A400FFF7A2FF401B0228F5D9032041E1FFF716
:1011B4009BFF0546784B1B6813F4003FD3D0FFF721
:1011C40093FF401B6428F5D9032032E1724B5B681E
:1011D40013F4800FD6D1704B1B6813F0020F04D0A8
:1011E400E368012B01D0012023E16B48036823F05D
:1011F400F8032169F82292FAA2F2B2FA82F201FA11
:1012040002F213430360236813F0080F46D06369A6
:1012140093B30122634B1A60FFF766FF05465E4BEA
:101224005B6F13F0020F39D1FFF75EFF401B0228FA
:10123400F5D90320FDE05848036823F0F803216939
:10124400F82292FAA2F2B2FA82F201FA02F21343FB
:101254000360D8E70022524B1A60FFF745FF0546AA
:101264004D4B1B6813F0020FCDD0FFF73DFF401B21
:101274000228F5D90320DCE000224A4B1A60FFF76C
:1012840033FF0546444B5B6F13F0020F06D0FFF7A4
:101294002BFF401B0228F5D90320CAE0236813F072
:1012A400040F1FD1A369002B00F0C2803A4A926850
:1012B40002F00C02082A00F0BE80022B59D0002252
:1012C400394B1A60FFF710FF0446334B1B6813F0C9
:1012D400007F00F0A780FFF707FF001B6428F4D904
:1012E4000320A6E0002301932B4B1A6C42F080529A
:1012F4001A641B6C03F080530193019B2B4A1368FF
:1013040043F480731360FFF7EFFE0546274B1B6819
:1013140013F4807F06D1FFF7E7FE401B0228F5D9BE
:10132400032086E0227A224B1A70A36883B1FFF768
:10133400DBFE0546184B1B6F13F0020FB2D1FFF70B
:10134400D3FE401B41F288339842F3D9032070E066
:10135400FFF7CAFE0546104B1B6F13F0020FA1D016
:10136400FFF7C2FE401B41F288339842F3D90320B1
:101374005FE000220C4B1A60FFF7B6FE0546064BF1
:101384001B6813F0007F15D0FFF7AEFE401B6428E6
:10139400F5D903204DE000BF003802400238024076
:1013A40000004742800E4742600047420070004000
:1013B40070380240E369226A1343616A47F6C072D7
:1013C40092FAA2F2B2FA82F201FA02F21343A26A88
:1013D4005208013A4FF4403191FAA1F1B1FA81F186
:1013E4008A401343E16A4FF0706292FAA2F2B2FAB1
:1013F40082F201FA02F21343104A53600122104BA5
:101404001A60FFF771FE04460C4B1B6813F0007F53
:1014140006D1FFF769FE001B6428F5D9032008E014
:10142400002006E0002004E001207047012000E0D5
:10143400002003B030BD0120FBE700BF00380240AC
:1014440060004742F8B5314B9B6803F00C03042B52
:1014540059D0082B01D02E48F8BD2C4B5A6802F005
:101464003F025B6813F4800F2AD0284B5B68C3F3F8
:1014740088131E4600275C010025E41A65EB070566
:10148400A90141EA9461A001001B61EB0501CB00B5
:1014940043EA5073C400A01943EB07014B0243EA2B
:1014A400D0534402204619460023FEF7FBFE174B97
:1014B4005B68C3F3014301335B00B0FBF3F0F8BD99
:1014C400124B5B68C3F388131E4600275C0100259A
:1014D400E41A65EB0705A90141EA9461A001001B28
:1014E40061EB0501CB0043EA5073C400A01943EB40
:1014F40007018B0243EA90538402204619460023D5
:10150400FEF7D0FED3E70348F8BD00BF0038024021
:101514000024F40000127A00002800F0A28070B5C4
:101524000446524B1B6803F00F038B4209D2CBB223
:101534004E4A1370136803F00F03994201D001203F
:1015440070BD236813F0020F17D013F0040F04D0FA
:10155400474A936843F4E0539360236813F0080FF9
:1015640004D0434A936843F460439360404A9368C9
:1015740023F0F003A068034393600D46236813F03F
:10158400010F31D06368012B20D0022B25D0384ABB
:10159400126812F0020F66D035498A6822F00302FD
:1015A40013438B60FFF7A0FD0646314B9B6803F0A5
:1015B4000C036268B3EB820F16D0FFF795FD801B16
:1015C40041F288339842F0D9032070BD284A12684A
:1015D40012F4003FE0D1012070BD254A126812F0D8
:1015E400007FD9D1012070BD204B1B6803F00F038D
:1015F4009D4209D2EAB21D4B1A701B6803F00F0317
:101604009D4201D0012070BD236813F0040F06D061
:10161400174A936823F4E053E1680B43936023680B
:1016240013F0080F07D0124A936823F4604321692A
:1016340043EAC1039360FFF705FF0D4B9B6803F07A
:10164400F003F02292FAA2F2B2FA82F2D340094AEB
:10165400D35CD840084B18600020FFF715FD00202C
:1016640070BD01207047012070BD00BF003C0240E6
:1016740000380240501E000800000020014B18688A
:10168400704700BF0000002008B5FFF7F7FF074BC5
:101694009B6803F4E0534FF4E05292FAA2F2B2FAD8
:1016A40082F2D340024AD35CD84008BD00380240DD
:1016B400601E000808B5FFF7E1FF074B9B6803F4C1
:1016C40060434FF4604292FAA2F2B2FA82F2D3403B
:1016D400024AD35CD84008BD00380240601E0008AE
:1016E400074AD36823F4E0631B041B0C000200F4D4
:1016F400E060184340F0BF6040F40030D0607047B1
:1017040000ED00E030B4164BDB68C3F30223C3F1F1
:101714000704042C28BF04241D1D062D17D9033BE0
:10172400012505FA04F4013C2140994005FA03F32C
:10173400013B1340194300280BDB0901C9B200F136
:10174400604000F5614080F8001330BC704700230E
:10175400E6E700F00F000901C9B2024B1954F4E79F
:1017640000ED00E014ED00E0420900F01F00012349
:1017740003FA00F0014B43F82200704700E100E057
:101784000138B0F1807F0AD2064B5860F021064A36
:1017940082F823100020986007221A607047012005
:1017A400704700BF10E000E000ED00E0042805D021
:1017B400054A136823F0040313607047024A136850
:1017C40043F004031360704710E000E0F0B583B009
:1017D40000244BE04FEAD40E0EF1080E50F82E20F0
:1017E40004F00706B6000F27B74022EA07020F6984
:1017F40007FA06F6324340F82E2046E0082600E0B9
:10180400002606FA0EF632430233614E46F82320D0
:10181400604B1A68EB4302EA03064F6817F4803FF3
:1018240001D045EA02065B4A1660526803EA0206E2
:101834004F6817F4003F01D045EA0206554A566046
:10184400926803EA02064F6817F4801F01D045EA44
:101854000206504A9660D26813404E6816F4001F80
:1018640001D045EA02034B4AD36001340F2C00F245
:101874008C800123A3400A6803EA0205AB42F4D139
:101884004A68022AA6D0122AA4D006684FEA440E57
:10189400032202FA0EF2D24316404F6807F0030700
:1018A40007FA0EF73E4306604E68771E012F03D9F0
:1018B400112E01D0122E0FD186681640CF6807FA78
:1018C4000EF73E438660466826EA03034E68C6F375
:1018D4000016A64033434360C3681A408B6803FA7A
:1018E4000EF31A43C2604B6813F0805FBDD000232F
:1018F4000193294B5A6C42F480425A645B6C03F4A2
:1019040080430193019BA3089E1C214A52F8262080
:1019140004F003064FEA860E0F2606FA0EF622EAB4
:1019240006021E4FB8423FF46BAF1D4EB0421ED0AC
:1019340006F58066B0421CD006F58066B0421AD027
:1019440006F58066B04218D006F58066B04216D01F
:1019540006F58066B04214D006F58066B04212D017
:1019640006F58066B0423FF449AF092649E70126EF
:1019740047E7022645E7032643E7042641E7052611
:101984003FE706263DE707263BE703B0F0BD00BF6F
:1019940000380140003C0140003802400000024091
:1019A400000402400268D3B2103B0B49A1FB0313AD
:1019B4001B090A49C95CC165032B06D822F47F724E
:1019C40022F003028265806D704722F47F7222F058
:1019D400030204328265F6E7ABAAAAAA481E0008ED
:1019E400836A826992B9012B0AD01BB1022B01D000
:1019F40000207047C36A13F0807F2CD10020704709
:101A0400C36AB3F1C07F28D000207047B2F5005FED
:101A140005D0022B29D9032B15D000207047032BA6
:101A240003D8DFE803F01C041C0A00207047C36AD3
:101A340013F0807F15D100207047C36AB3F1C07FD3
:101A440011D000207047C36A13F0807F01D00120B9
:101A54007047002070470120704701207047012023
:101A64007047012070470120704701207047000033
:101A740070B50446FFF738FB002C5DD00546002303
:101A840084F83430022384F835302268136823F054
:101A94000103136023681A6812F0010F0AD0FFF7DC
:101AA40023FB401B0528F5D920236365032084F814
:101AB400350070BD1A68214911406268A06802436C
:101AC400E06802432069024360690243A06902435B
:101AD400E0690243206A02430A43616A042916D07A
:101AE4001A602668756925F00705636A1D43042B8F
:101AF40012D075612046FFF755FFE26D3F239340F6
:101B0400836000206065012384F8353070BDE16A8C
:101B1400206B01430A43E3E7A36A1D43E36A002BF6
:101B2400E7D02046FFF75CFF0028E2D0402363653E
:101B3400012084F8350070BD012070BD3F8010F095
:101B4400F0B583B0044600230193724B1D68724BB9
:101B5400A3FB0535AD0A876D3E68C26D082393402B
:101B64001E4210D003681A6812F0040F0BD01A68D2
:101B740022F004021A60C26D08239340BB60436DD7
:101B840043F001034365E26D012393401E4209D0F3
:101B94002268526912F0800F04D0BB60636D43F079
:101BA40002036365E26D042393401E4209D0226858
:101BB400126812F0020F04D0BB60636D43F004039B
:101BC4006365E26D102393401E4224D0226812689C
:101BD40012F0080F1FD0BB6023681A6812F4802F1C
:101BE4000DD01B6813F4002F04D1236C9BB1204645
:101BF400984710E0A36C73B1204698470BE01A682D
:101C040012F4807F03D11A6822F008021A60236C50
:101C14000BB120469847E26D202393401E4255D0D5
:101C24002268126812F0100F50D0BB6094F835305F
:101C3400DBB2052B0ED023681A6812F4802F33D040
:101C44001B6813F4002F2AD1636C002B3ED020466E
:101C540098473BE02268136823F016031360226858
:101C6400536923F080035361236CA3B12268136882
:101C740023F008031360E26D3F239340BB6000230D
:101C840084F83430012384F83530236D002B3FD0A1
:101C9400204698473CE0A36C002BE7D1EBE7E36BCD
:101CA400A3B12046984711E01A6812F4807F09D145
:101CB4001A6822F010021A60002384F834300123D9
:101CC40084F83530E36B0BB120469847636DFBB164
:101CD400636D13F0010F17D0052384F835302268A3
:101CE400136823F001031360019B013301939D42A8
:101CF40004D323681B6813F0010FF5D1002384F883
:101D04003430012384F83530E36C0BB12046984716
:101D140003B0F0BD00000020B5814E1B38B5044669
:101D24000D4601E00134A84720780028FAD138BDD7
:101D3400034B1B6813F0400FFAD0014B58607047F7
:101D440000100140024A136801331360704700BF5A
:101D5400200000200C4B1A6842F001021A60002196
:101D640099601A6822F0847222F480321A60074A59
:101D74005A601A6822F480221A60D9604FF0006217
:101D8400034B9A60704700BF0038024010300024B3
:101D940000ED00E0DFF834D0002103E00C4B5B5889
:101DA400435004310B480C4B42189A42F6D30B4A69
:101DB40002E0002342F8043B094B9A42F9D3FFF7AF
:101DC400C9FFFEF72FFAFEF70DFD70470000022051
:101DD400781E0008000000200400002004000020F9
:101DE40010010020FEE70000F8B500BFF8BC08BCF5
:101DF4009E467047F8B500BFF8BC08BC9E467047C5
:101E04005372632F6D61696E2E63000048657920FB
:101E140062697463682021212120697460732061E0
:101E24006463207465737421000000005372632F8F
:101E340073746D3332663278785F68616C5F6D738A
:101E4400702E630000061016000610160000000035
:101E54000000000001020304060708090000000056
:041E64000102030470
:081E680070E4FF7F010000009F
:041E7000F101000874
:041E7400C901000898
:041E78000024F4004E
:0400000508001D9939
:00000001FF
